:020000040000fa
:080000000001040000000000f3
:020000040000fa
:100008009401000094010000940100009401000094
:100018009401000094010000940100009401000084
:10002800940100009401000094010000880400007d
:100038009401000094010000fe0300001604000073
:1000480094010000ea0300009401000094010000fc
:100058009401000094010000940100009401000044
:100068009401000094010000940100009401000034
:1000780094010000a0040000940100009401000015
:100088009401000094010000940100009401000014
:100098009401000094010000940100009401000004
:1000a80094010000940100009401000094010000f4
:1000b80094010000940100009401000094010000e4
:1000c80094010000940100009401000094010000d4
:1000d80094010000940100009401000094010000c4
:1000e80094010000940100009401000094010000b4
:0800f8009401000094010000d6
:020000040000fa
:100108009401000094010000940100009401000093
:100118009401000094010000940100009401000083
:10012800940100009401000094010000880400007c
:100138009401000094010000fe0300001604000072
:1001480094010000ea0300009401000094010000fb
:100158009401000094010000940100009401000043
:100168009401000094010000940100009401000033
:1001780094010000a0040000940100009401000014
:100188009401000094010000940100009401000013
:100198009401000094010000940100009401000003
:1001a80094010000940100009401000094010000f3
:1001b80094010000940100009401000094010000e3
:1001c80094010000940100009401000094010000d3
:1001d80094010000940100009401000094010000c3
:1001e80094010000940100009401000094010000b3
:0801f8009401000094010000d5
:020000040000fa
:100200004f8120000eff20000e018800000000003a
:1002100000012000200288000c000700208620003a
:100220000100200011000700000020000000e00095
:10023000020032000000020000000000d4060200ac
:10024000000000000040da000000fe004440a90069
:10025000000620000000e000030032000000200043
:10026000a00188004440a800000006009101880019
:10027000800078000000eb0015003700e2804000ad
:1002800032a0b4009101ba00e280400032a0b40074
:100290009102ba00e280400032a0b4000002eb00fc
:1002a000472bde00f507b200602ce10004003a00a5
:1002b0000059eb008301e900fdff3e000400370018
:1002c0006128e100010032000082eb000400070019
:1002d0001101ba000200e000e8ff3a000000060049
:1002e0003159ba008301e9000c0032002159ba00eb
:1002f0008301e900080032000400e00003003a0036
:10030000e280400032a0b400f5ff370011d9ba00f6
:100310008301e900faff3a008100e800e180400033
:1003200032a0b400000006000040da000000fe0029
:100330000001be001c0007000470a70003f0a1002c
:1003400003f8a30013003a006509b1001000320061
:10035000090035006928e10002003500010028008d
:100360000000050000004000818048008502e9008f
:10037000fcff3a0000000600f88f4200050035003f
:100380008100d1000080d3008502e800fcff3a0024
:10039000000006008000eb00000005004f89de0031
:1003a0008201780049003700c70ade00f107b20079
:1003b000f50fb20008003200e1cf42000200320027
:1003c0000170a00024000500810f700001003200c0
:1003d0000408050044000500810f700002003a0087
:1003e000140005008502e9000000400081c04800bb
:1003f000fcff3b000170a00024000500889fbe00a8
:100400008a9fbe008c1f7800950007009c00330077
:1004100003866c006450e100240032006420e10097
:10042000270032006150e100220032006120e1002b
:10043000210032008b854200eb07b1000134b80087
:10044000003ab8000804420089844a00013ab80022
:100450000030b8008880400009014a0004003300e1
:100460000000400081804800020149008b05e9003e
:10047000c909dd0083017000010032001300200073
:10048000c814de004814dd004709de001200b20087
:10049000c808de00088470004b00070001f0a100ce
:1004a0000cf0a70001f0a0007e0037006120e10001
:1004b000800032000801be000200be00f7ff3700d6
:1004c0006150e100fcff3a007a003700881f780095
:1004d000030478000300e00007003d006000100006
:1004e000e080180060011900e081190002003b0063
:1004f00001f02d00030037000400070008f0a700fa
:1005000001f0a0004f04780000000600889fbe00a4
:100510008a9fbe0000827000040271000482710094
:10052000260032000004be000200be006011b800c8
:100530006b092000950220000182cf000a003900db
:100540000541b1000082cf00070039000541b1002c
:100550000982cf00040039000541b1000882cf00b4
:10056000010039000541b10005425200120032007d
:100570000a003b0082817100610164008100d100aa
:100580000080d3008984d3000884d3008b05e80061
:100590000442e800f7ff3a0007003700080444006f
:1005a00089844c0000004800818048008b05e900e8
:1005b0000442e900f9ff3a00030007004f05be00be
:1005c0004f04be000000060081002000618055003d
:1005d0000b003d000b00200061fe2f000100e10038
:1005e0001d00340082817100610164008904d10022
:1005f0000884d3000000e800faff3a0071002000f0
:100600006100640003007000020060000900320015
:1006100061044400e0844c000988a5000500320014
:100620008b05e8006808e10002003a008904d10067
:100630000884d300f20f20000258e10005003d00bd
:10064000c75ddd00f907b2008980750008007800f9
:10065000000006000bf827008b0078000000050062
:100660000004be0050ff07000003be000405be00ea
:100670000200be004cff0700844f7500000006001a
:100680000200be006450e100050036006420e10075
:10069000020036000968a30001003a000800be000d
:1006a0000160a0004f0678004f05be004f04be0059
:1006b00000000600f0ff2f00f1ff2700f9ff3700d0
:020000040000fa
:1006c0004e6100007072000065640000004c000084
:1006d000657600006f00000044650000736e000046
:1006e0006f0000004e6100007a610000642000008d
:1006f00044650000736e00006f0000004e61000052
:100700007a610000642000004c650000766f0000f4
:1007100000530000746f0000700000004e61000084
:100720007a610000640000007365000072690000d7
:100730006a7300006b610000203200000077000047
:10074000686900006c6500000044000069730000e7
:10075000746100006e63000065310000203d000000
:10076000200000004469000073740000616e000006
:1007700063650000322000003d2000000000000002
:020000040000fa
:100780000000fa00740320006408880084702000d0
:10079000040c8800843e2000140c8800240c800087
:1007a0000400a1000410a0000420a000240c880074
:1007b000840880000440a0000450a0008408880041
:1007c00011e1a80014012000040c88000080fa0048
:1007d000000006003400f800881f780008002000a0
:1007e000a80188004f0478000000fa008520a900c5
:1007f0000080fa003400f90000400600841f7800f1
:100800003400f80004002000a40188000000fa0071
:100810000002eb003408880084c0a9000080fa00c0
:100820003400f9004f02780000400600841f780071
:100830003400f80004002000a40188000000fa0041
:100840000002eb0054088800044080000402e80025
:100850000440880084e0a9000080fa003400f90018
:100860004f027800004006000000fa000002eb0092
:100870000408880004352c00140888000421a9000d
:100880008460a9008c60a8000080fa0000000600c7
:100890000000fa000002eb00340888000471220016
:1008a000640888001021a90084c0a9008cc0a80099
:1008b0000080fa00000006000000fa000002eb00d1
:1008c0005408880004712200740888001221a900cd
:1008d00084e0a9008ce0a80013e1a8000080fa00e1
:1008e000000006000000fa000002eb00a4088800e7
:1008f00044062000d40888001e21a90086a0a90073
:100900008ea0a8001fe1a8000080fa0000000600e9
:10091000841f78003400f80004002000a40188003f
:100920000000fa000002eb00040888008460a900bf
:100930000080fa003400f9004f0278000040060001
:10094000841f78003400f80004002000a40188000f
:100950000000fa000002eb00a408880014408000a8
:100960000402e8001440880086a0a9000080fa0074
:100970003400f9004f027800004006000200fa003f
:10098000000f78000002eb00044088000000000027
:10099000044080009e0f5200fdff39000080fa00e5
:1009a000000006000200fa00000f78000002eb00d1
:1009b0001440880000000000144080009e0f520088
:1009c000fdff39000080fa00000006000200fa0076
:1009d000000f780000000000751080000410200057
:1009e00004826200e00f5200fbff320064108000be
:1009f00066026200e60f520003003a001e02780011
:100a00008410880003003700f40f20001e026200eb
:100a1000841088000080fa00000006000000fa0040
:100a2000881f7800000478000f0037001842780013
:100a30000402fb0004007800e4ff0700184278007d
:100a4000ed4f520002003a00a0002000dfff070037
:100a500018427800ea4f520002003a00d00020000d
:100a6000daff07000804e80018427800e04f52005f
:100a7000eeff3a004f0478000080fa000000060004
:100a80000400fa00100798009e029000843e2000a7
:100a9000110009008482d80000027800044f780019
:100aa0009e4278000582fb000403b0000400780039
:100ab000c6ff07001e4078008082fb0084c12f0023
:100ac00004aab900040278009e0290000482420049
:100ad000140798009e0290004406200011000900af
:100ae0008482d80000027800044f78009e4278008b
:100af0000582fb000403b00004007800b3ff070088
:100b00001e4078008082fb00c4f92f0004aab900bf
:100b1000040278009e0290000482420014079800ac
:100b20009e029000a4002000110009008482d800d9
:100b300000027800044f78009e4278000582fb0096
:100b40000403b00004007800a0ff07001e407800f6
:100b50008082fb0064ff2f0004aab9000402780021
:100b60009e02900004824200140798001e0290002a
:100b70000403b0000400780094ff07000080fa002e
:100b8000000006000000fa0004042000a410880001
:100b90000d42a9008d20a80075108000c4ff2f0011
:100ba00004826200741088000de2a8000f42a800c1
:100bb0000080fa00000006000000fa00a922a80048
:100bc000c722a900a942a800c742a900a962a8009b
:100bd000c762a900a982a800c782a900d202a90001
:100be000d222a9000080fa00000006000200fa00ec
:100bf0000036280089ff0700a000200073ff0700cf
:100c0000d000200071ff0700ebff07001401200057
:100c1000040f7800cb22a800cb42a900d622a9005d
:100c20000080fa00000006000200fa00703628007a
:100c30007aff0700a000200064ff0700d00020001a
:100c400062ff0700dcff0700cb62a800cb82a9008f
:100c5000d622a800cb22a800cb42a9001401200074
:100c6000040f78000080fa00000006000200fa007d
:100c7000c036280069ff0700a000200053ff0700ce
:100c8000d000200051ff0700cbff0700cb62a90076
:100c9000cb82a800d622a800cb22a800cb42a90074
:100ca00014012000040f78000080fa000000060004
:100cb0000200fa002037280058ff0700a00020009b
:100cc00042ff0700d000200040ff0700baff0700e6
:100cd000cb62a900cb82a800d622a800cb22a90013
:100ce000cb42a80014012000040f78000080fa0015
:100cf000000006000200fa00e037280047ff070066
:100d0000a000200031ff0700d00020002fff0700c7
:100d1000a9ff0700cb62a800cb82a900d622a800b9
:100d2000cb22a900cb42a80014012000040f7800b8
:100d30000080fa00000006000000fa009038280049
:100d400036ff0700a000200020ff0700d000200091
:100d50001eff070098ff0700cb22a900cb42a90085
:100d6000d622a9000080fa00000006000200fa0066
:100d7000e038280029ff0700a000200013ff07002b
:100d8000d000200011ff07008bff07001401200096
:100d9000040f7800cb22a900cb42a800d622a900dc
:100da0000080fa00000006000400fa00000f78003e
:100db0001107980073ff0700abfe0700befe070097
:100dc000c8fe07006efe07004039280013ff070029
:100dd000a0002000fdfe0700d0002000fbfe070061
:100de000d322a800d262a900d302a800d242a9004f
:100df000f039280009ff0700a0002000f3fe0700db
:100e0000d0002000f1fe07000002eb00040888007b
:100e1000d662a90010002000e2fe0700d662a800fa
:100e200010002000dffe0700d662a9000002eb00e0
:100e30007440880000000000a516800004202000f7
:100e400004826200e00f5200fbff32000500370011
:100e5000744080000402e800744088001000200004
:100e6000d0fe0700a5168000042020000482620046
:100e7000e00f5200f6ff3a0074408000cfa2de007f
:100e80000400be0045fd07000002be00b24721007d
:100e9000e3e223000400be0058fd07000002be008c
:100ea0000400be0022fd07000002be00040278001c
:100eb00034408800503a2800d8fe070034408000b3
:100ec00004007800eefe0700a0002000bffe07002f
:100ed000d0002000bdfe0700d642a900100020006f
:100ee000b0fe0700d642a80010002000adfe0700ab
:100ef000d642a9000002eb00040888000002eb00c3
:100f00008440880000000000a51680000410200026
:100f100004826200e00f5200fbff32000500370040
:100f2000844080000402e800844088001000200013
:100f30009cfe0700a51680000410200004826200b9
:100f4000e00f5200f6ff3a0084408000cfa2de009e
:100f50000400be0011fd07000002be00b2472100e0
:100f6000e3e223000400be0024fd07000002be00ef
:100f70000400be00eefc07000002be000402780080
:100f800054408800203b2800a4fe07005440800005
:100f900004007800bafe070034408000fd0f5200c4
:100fa0000800360055408000c4122000848f520093
:100fb00004003e0035408000c4122000848f52009f
:100fc0000d00360018ff0700201c20006bfe0700f4
:100fd00037ff0700201c200068fe070056ff0700af
:100fe0004001200065fe07000fff0700803e200043
:100ff00062fe07003200370054408000ea0f5200c2
:101000000a00360054408000ef0f520007003e00f7
:1010100034408000fd0f520004003600f3fe07004c
:101020004001200055fe0700250037005440800095
:10103000ef0f52001400360055408000c41220000b
:10104000848f520010003e0034408000fd0f52009b
:101050000d00360005ff0700201c200047fe07009a
:1010600024ff0700800c200044fe070032ff070029
:101070004001200041fe0700fcfe0700401f200049
:101080003efe07000e00370054408000ea0f520079
:1010900007003e0034408000fd0f5200040036007f
:1010a000e1fe07000019200034fe070004003700ad
:1010b000cefe0700e001200030fe07004cff3700a5
:0410c0004bff3700ab
:020000040000fa
:1010c40000080000140000000200000000000000fe
:1010d400000000000000000000000000000000000c
:0c10e40000000000000000000000000000
:020000040000fa
:0200000401f009
:04000000e5bf000058
:020000040000fa
:0200000401f009
:04000400ff7f00007a
:00000001FF
